:06000000020EB602006BC7
:03000B0002006B85
:0300130002006B7D
:03001B0002006B75
:0300230002006B6D
:03002B0002006B65
:0300330002006B5D
:03003B0002006B55
:0300430002006B4D
:03004B0002006B45
:0300530002006B3D
:03005B0002006B35
:0300630002006B2D
:01006B003262
:0900800002006B0002006B00029B
:08008900006B0002006B000295
:08009100006B0002006B00028D
:08009900006B0002006B000285
:0800A100006B0002006B00027D
:0800A900006B0002006B000275
:0700B100006B0002006B0070
:0901000002006B0002006B00021A
:08010900006B0002006B000214
:08011100006B0002006B00020C
:08011900006B0002006B000204
:08012100006B0002006B0002FC
:08012900006B0002006B0002F4
:08013100006B0002006B0002EC
:08013900006B0002006B0002E4
:08014100006B0002006B0002DC
:08014900006B0002006B0002D4
:08015100006B0002006B0002CC
:08015900006B0002006B0002C4
:08016100006B0002006B0002BC
:08016900006B0002006B0002B4
:08017100006B0002006B0002AC
:07017900006B0002006B00A7
:030EBC00020EBF64
:030ED2000201809A
:050180001204B180FE35
:06018500C200E4F508F5DC
:04018B0009F50AD296
:05018F0001750B007575
:060194000C001206AE1281
:0E019A0006AB75CB6375CAC0758E0075C804C0
:0E01A800D2AFD2B0D2B190E6047480F00090D5
:0E01B600E60B7403F00090E61074A0F00090C9
:0D01C400E61174A0F00090E618E4F0009041
:0E01D100E6047402F00090E61274A2F00090B2
:0D01DF00E619E4F00090E6047404F00090CE
:0D01EC00E61374A0F00090E61AE4F0009015
:0E01F900E6047406F00090E61474E2F0009044
:0D020700E61BE4F00090E6047408F000909F
:0D021400E61574E0F00090E604E4F00090C0
:0E022100E60BE4F0000090E6917480F000908F
:0E022F00E6957480F00090E6917480F00090E7
:06023D00E6957480F0223A
:0B024300AA82850C827583E0EAF005BA
:05024E000C0509E4B5F8
:040253000902050A8D
:010257002284
:04025800200001225F
:0E025C001206AA90E6A2E0FA30E1030202F1D7
:0A026A00E509450A60697AC07BE7E8
:0E0274008B9D7AC07BE77B008A9E90E67C74AF
:0C02820031F07460F0C3743E9509E495FF
:0A028E000A50107A3EE50924C2F57B
:0602980009E50A34FFF540
:03029E000A8007CC
:0602A100AA09E4F509F5CD
:0102A7000A4C
:0B02A8008A037C007DE08D9A850B9B93
:0E02B3008A041AEC601190E67BE0FC90E67C79
:0902C100F07C007DE08D9A80E9DB
:0C02CA00859B0B0090E68F74022BF0D295
:0302D600CF8018BE
:0E02D90030CF1590E7C07431F090E7C174602B
:0A02E700F00090E68F7402F0C2CF21
:0602F100E5AA30E0012245
:0A02F700C3E50994C1E50A94004034
:020301000122D7
:0E03030090E690E0FA8A037A0090E691E0FC22
:0A0311007D00EA4CF50DEB4DF50EF2
:0E031B007C007DF08D9A7C007DF07D008C9B37
:040329007C007D00D7
:0A032D00C3EC950DED950E400302A0
:02033700042997
:07033900E50870030203D97F
:0A034000E50DC39CFEE50E9DFFA82D
:0C034A00087900C3E89EE99F5004880673
:02035600890715
:0A0358008E00E508C398F508EE2CAE
:0B036200FCEF3DFD30012D8E008F01EF
:09036D008802890318B8FF011988
:0E037600EA4B60B390E67BE0FAF582C004C06B
:0E03840005C000C001120755D001D000D00501
:04039200D00480D73C
:040396008E028F0341
:09039A008A068B071ABAFF011B49
:0703A300EE4F700302032D71
:0E03AA0090E67BE0FEF582C002C003C004C0F6
:0E03B80005120792D005D004D003D002C00277
:0E03C600C003C004C005120243D005D004D00D
:0503D40003D00280C10E
:0C03D90090E67BE0FA30E6047B00800236
:0203E5007B019A
:0C03E700EB24FF9201EA30E707743F5A54
:0403F300F508802A5F
:0C03F70030010F8A82C004C0051206CC41
:06040300D005D0048018B2
:0E0409008A82C004C005120742D005D004C08C
:0A04170004C005120243D005D00412
:050421000CBC00010D00
:0304260002032DA1
:080429000090E6917480F022BE
:0E04310090E6B8E0FA20E70C90E6B9E0700221
:02043F00D200E9
:04044100758201229D
:0E04450090E6B9E0FABA902C90E6BCE025E013
:0A045300547FFA2400F582E4341807
:0C045D00F583E0FB90E740F074012A24D6
:0A04690000F582E43418F583E0FA90
:0604730090E741F0800C4F
:0C04790090E7407436F090E7417483F087
:0D04850090E68AE4F090E6BEE0FABA0200CC
:09049200500790E6BEE0FA80027A
:02049B007A02E3
:09049D0090E68BEAF07582012261
:0604A600300203120A05FA
:0504AC0012025880F56A
:0904B100C2AF12018512050E1202
:0804BA000DE712096FD2AF1229
:0504C20008840204A6FD
:02E1000012010A
:06E10200100100000040C6
:06E10800C016AD06040084
:04E10E000102030106
:0AE112000A061001FFFFFF400100A4
:07E11C0009022000010100CF
:0EE12300804B0904000002FFFFFF0207058188
:0BE13100024000000705020240000051
:0EE13C001201100100000040C016AD060400E4
:04E14A0001020301CA
:0AE14E000A061001FFFFFF40010068
:0EE1580009022000010100804B0904000002B2
:0EE16600FFFFFF0207058102400000070502CF
:04E174000240000065
:01E1780004A2
:02E1790082E141
:02E17B0088E139
:02E17D0096E129
:02E17F00AEE10F
:06E1820006030000090481
:0EE188000E03690078006F002E006400650031
:0EE1960018035500530042002D004A005400AB
:0AE1A400410047002D00490046002D
:0EE1AE0012033000300030003000300030002E
:04E1BC0030003000FF
:0A04C700AA82E50F54FEFBB50F02F8
:0204D100802A7F
:0A04D3008A048C05E4FC6210ED625F
:0804DD0011EB2400F582E43468
:0A04E50018F583E0FB7C006210ECC8
:0604EF006211E51033C5A7
:0704F5001133C51192E0F57F
:0104FC0010EF
:0604FD00AB0F050FEB241C
:0A05030000F582E43418F583EAF0F5
:01050D0022CB
:07050E00750F007510AA75BE
:0C05150011AA7582001204C77582001242
:0405210004C77A0091
:0C052500C3EA648094865018EA2408F5AC
:0C05310082E434E1F583E0FBF582C002B7
:08053D001204C7D0020A80E09D
:020545007A003A
:0C054700C3EA648094825018EA2423F573
:0C05530082E434E1F583E0FBF582C00295
:08055F001204C7D0020A80E07B
:0E05670075821C1204C77582001204C77A0048
:0C057500C3EA648094825018EA2402F566
:0C05810082E434E1F583E0FBF582C00267
:08058D001204C7D0020A80E04D
:0C0595007486250FFAF582C0021204C71C
:0E05A100D00290E188E0FBF582C0021204C790
:0E05AF00D00290E188E0FB2AFAF582C0021229
:0E05BD0004C7D00290E196E0FBF582C0021266
:0E05CB0004C7D00290E196E0FB2AFAF58212F6
:0A05D90004C790E1AEE0FAF58212CB
:0405E30004C77A00CF
:0E05E70090E188E0FBC3EA64808BF063F08053
:0B05F50095F05018EA2488F582E434E9
:0C060000E1F583E0FBF582C0021204C7A4
:05060C00D0020A80D6B7
:020611007A006D
:0E06130090E196E0FBC3EA64808BF063F08018
:0B06210095F05018EA2496F582E434AE
:0C062C00E1F583E0FBF582C0021204C778
:05063800D0020A80D68B
:02063D007A0041
:0E063F0090E1AEE0FBC3EA64808BF063F080D4
:0B064D0095F05018EA24AEF582E4346A
:0C065800E1F583E0FBF582C0021204C74C
:05066400D0020A80D65F
:020669007A0015
:0C066B00C3EA648094845018EA240EF561
:0C06770082E434E1F583E0FBF582C00270
:080683001204C7D0020A80E056
:0C068B007482250F40087582001204C71D
:0206970080F2EF
:0A069900AA107B0090187EEAF0AA78
:0706A3001190187FEAF0221C
:0106AA00222D
:0106AB00222C
:0106AC00222B
:0106AD00222A
:0E06AE0090E6007412F090E60174E0F075B171
:0E06BC001F75B61F9001F4120EA3E5B475B4BD
:0206CA0000220C
:0B06CC00E582FA20E505E5B475B400F6
:0806D700EA30E0047B0180021F
:0206DF007B009E
:0D06E100EB24FF92A2EA30E1047B018002CD
:0206EE007B008F
:0D06F000EB24FF92A3EA30E2047B018002BC
:0206FD007B0080
:0D06FF00EB24FF92A5EA30E3047B018002AA
:02070C007B0070
:0D070E00EB24FF92A4EA30E4047B0180029A
:02071B007B0061
:0D071D00EB24FF92A0EA30E5047B0180028E
:02072A007B0052
:0C072C00EB24FF92A7530220BA00012228
:0A073800AAB474BD5A44BDF5B42202
:0E0742001206CCE4A2A63325E0FAE4A2A1330D
:05075000FB4AF58222C6
:0E075500E5821392A0D2A213C2A292A0D2A259
:0E07630013C2A292A0D2A213C2A292A0D2A24E
:0E07710013C2A292A0D2A213C2A292A0D2A240
:0E077F0013C2A292A0D2A213C2A292A0D2A232
:05078D0000C2A22222BF
:0A079200AA8230A4058A820207A1A2
:05079C008A820207EF54
:0E07A100E582A2A11392A0D2A2C2A2A2A1132D
:0E07AF0092A0D2A2C2A2A2A11392A0D2A2C274
:0E07BD00A2A2A11392A0D2A2C2A2A2A1139244
:0E07CB00A0D2A2C2A2A2A11392A0D2A2C2A248
:0E07D900A2A11392A0D2A2C2A2A2A11392A02A
:0807E700D2A2C2A2F582222277
:0E07EF00E582A2A61392A0D2A2C2A2A2A613D5
:0E07FD0092A0D2A2C2A2A2A61392A0D2A2C221
:0E080B00A2A2A61392A0D2A2C2A2A2A61392EB
:0E081900A0D2A2C2A2A2A61392A0D2A2C2A2F4
:0E082700A2A61392A0D2A2C2A2A2A61392A0D1
:08083500D2A2C2A2F582222228
:08083D007880E84400600C79AA
:0C08450001901800E4F0A3D8FCD9FAD010
:0E08510083D082F6D8FDC082C083758200225B
:09085F0090E6A0E0FA4401F02249
:0E086800AA8274805AFBC423541FFB740F5ADB
:0E08760090E6834BF090E683E0FA4420F022F7
:0E08840090E680E0FA440AF09000FA120EA30B
:0E08920090E65D74FFF090E65F74FFF0539106
:0A08A000EF90E680E0FA54F7F02232
:060ECC00E478FFF6D8FDFA
:060EB60075120075130027
:0A08AA0090E680E0FA30E7197514BB
:0308B400007515B7
:0308B700E17516D2
:0308BA001275179D
:0308BD00E17518CA
:0308C0001C75198B
:0308C300E1751AC2
:0308C60058751B47
:0208C900E1222A
:0408CB0075143C75EF
:0308CF0015E175BB
:0308D200164E754A
:0308D50017E175B3
:0308D80018587538
:0308DB0019E175AB
:0308DE001A1C756C
:0308E1001BE122F6
:0908E4005391EF75A100D202321C
:0E08ED00C0E0C0F0C082C083C002C003C004DF
:0E08FB00C005C006C007C000C001C0D075D047
:0E090900005391EF75A1001208AAD0D0D001C2
:0E091700D000D007D006D005D004D003D00207
:09092500D083D082D0F0D0E03282
:0E092E00C0E0C0F0C082C083C002C003C0049D
:0E093C00C005C006C007C000C001C0D075D005
:0E094A00005391EF75A1001208AAD0D0D00181
:0E095800D000D007D006D005D004D003D002C6
:09096600D083D082D0F0D0E03241
:05096F001208AA751C2E
:03097400E4751D0A
:0809770008758200120D3875AD
:03097F001CED75F7
:060982001D087582101231
:040988000D38751C95
:03098C002E751DA8
:0C098F0009758214120D3890E65C74317A
:02099B00F02248
:0D099D00E582547FFA24F750047582002291
:0709AA00BA0104758201226D
:0809B100530201E4BA00010445
:0309B900F58222A2
:0E09BC00AA82BA010C90E6A1E0FB7C008B82BF
:0309CA008C8322F9
:0E09CD00BA810C90E6A2E0FB7C008B828C834A
:0109DB0022F9
:0E09DC0053027FEA700C90E6A0E0FB7C008BDB
:0409EA00828C832256
:0E09EE0090E6A3E0FB7C00EAC313FA7D00EA6A
:0909FC002BFBED3C8B82F58322FC
:0C0A0500C20290E6B8E0FA530260BA00AA
:030A110002802838
:050A1400BA2002800D74
:050A1900BA4002800E4E
:050A1E00BA6002800334
:030A2300020CCCF6
:060A260012085F020CCC77
:0A0A2C00120431E5826003020CCCD5
:060A360012085F020CCC67
:0D0A3C0090E6B8E0FA530280BA8002800311
:030A4900020BC8D5
:0B0A4C0090E6B9E0FABA0003020B3F8D
:050A5700BA0602803523
:050A5C00BA0802800849
:050A6100BA0A02801733
:030A6600020BC2BE
:0C0A690090E740E512F090E68AE4F0907F
:080A7500E68B7401F0020CCCC9
:0C0A7D0090E740E513F090E68AE4F0906A
:080A8900E68B7401F0020CCCB5
:0A0A910090E6BBE0FABA01028017FC
:050A9B00BA02028038E0
:050AA000BA03028059B9
:050AA500BA0602801BEF
:050AAA00BA0702803CC8
:030AAF00020B39FE
:0A0AB200AA14AB1590E6B3EBF07B3D
:090ABC000090E6B4EAF0020CCC53
:0A0AC500AA16AB1790E6B3EBF07B26
:090ACF000090E6B4EAF0020CCC40
:0A0AD800AA18AB1990E6B3EBF07B0F
:090AE2000090E6B4EAF0020CCC2D
:0A0AEB00AA1AAB1B90E6B3EBF07BF8
:090AF5000090E6B4EAF0020CCC1A
:0E0AFE0090E6BAE0FA90E178E0FBC3EA9B4094
:070B0C000612085F020CCC89
:0C0B130090E6BAE0FA75F002A42479F52F
:0C0B1F008274E135F0F583E0FAA3E0FBFE
:0E0B2B0090E6B3F07B0090E6B4EAF0020CCC4A
:060B390012085F020CCC63
:0D0B3F0090E6B8E0FA53021FBA0002800AE7
:050B4C00BA0102801B4C
:050B5100BA0268802CCF
:0E0B560090E740E4F090E741F090E68AF090DE
:080B6400E68B7402F0020CCCD8
:0E0B6C0090E740E4F090E741F090E68AF090C8
:080B7A00E68B7402F0020CCCC2
:0E0B820090E6BCE0FAF58212099DE58260263D
:0E0B900090E6BCE0FAF5821209BCE0FA5302CE
:0E0B9E000190E740EAF090E741E4F090E68A2B
:0A0BAC00F090E68B7402F0020CCC0E
:060BB60012085F020CCCE6
:060BBC0012085F020CCCE0
:060BC20012085F020CCCDA
:0C0BC80090E6B9E0FA24F45003020CC9D6
:070BD400EA2A2A900BDB73F3
:070BDB00020CC9020C11021B
:060BE2000C8F020C7002F2
:060BE8000CC9020CC90259
:060BEE000CC9020CC90253
:060BF4000CC9020BFF0218
:050BFA000CC9020C080B
:090BFF0090E6BAE0F512020CCCFC
:090C080090E6BAE0F513020CCCF1
:0D0C110090E6B8E0FA53021FBA0002800519
:050C1E00BA024A800A41
:0A0C230090E6BAE012085F020CCC64
:0E0C2D0090E6BAE0703390E6BCE0FAF5821271
:0E0C3B00099DE582602590E6BCE0FAF5821284
:0E0C490009BCAA82AB83E0FC5304FE8A828BB6
:0E0C570083ECF090E6BCE0FAF58212086880AB
:010C65006628
:050C660012085F80612F
:050C6B0012085F805C2F
:0E0C700090E6B8E0FA53021FBA005190E6BABF
:070C7E00E0FABA0102800553
:050C8500BA02028042EA
:050C8A0012085F803D2F
:0E0C8F0090E6BAE0FA702E90E6BCE0FAF5822C
:0E0C9D0012099DE582601B90E6BCE0FAF5822C
:0E0CAB001209BCAA82AB83E0FC4304018A82DA
:060CB9008B83ECF0800DBE
:050CBF0012085F80082F
:050CC40012085F80032F
:030CC90012085FAF
:090CCC0090E6A0E0FA4480F02259
:050CD500AA82BA030031
:070CDA004005EA249C5001D3
:010CE10022F0
:090CE200740F5AFBBB03028007EA
:070CEB00740F5AFBBB0B451F
:0A0CF200A2AF9203C2AFEA2400F59E
:0C0CFC0082E43400F5837402F07B007485
:0C0D0800012AFCE43BFDEC2400F582ED28
:0A0D14003400F583E51DFCF07402C5
:0C0D1E002AFAE43BFBEA2400F582EB34E7
:0A0D2A0000F583AA1C7B00EAF0A28A
:030D34000392AF78
:010D37002299
:080D3800E582FA248350012238
:070D400074035AFB6001225D
:0A0D4700A2AF9204C2AFEA2400F547
:0C0D510082E43401F5837402F07B00742E
:0C0D5D00012AFCE43BFDEC2400F582EDD3
:0A0D69003401F583E51DFCF074026F
:0C0D73002AFAE43BFBEA2400F582EB3492
:0A0D7F0001F583AA1C7B00EAF0A234
:040D89000492AF22FF
:050D8D00AA82BA8000FB
:070D92004005EA244B50016B
:010D99002237
:070D9A0074035AFB60012203
:0A0DA100A2AF9205C2AFEA2480F56C
:0C0DAB0082E43400F5837402F07B0074D5
:0C0DB700012AFCE43BFDEC2480F582EDF9
:0A0DC3003400F583E51DFCF0740216
:0C0DCD002AFAE43BFBEA2480F582EB34B8
:0A0DD90000F583AA1C7B00EAF0A2DB
:040DE3000592AF22A4
:080DE700C2E8C2EA751C0075A8
:060DEF001D017582431294
:040DF5000CD5751C88
:030DF90080751DE5
:0C0DFC0000758253120CD50090E650E404
:0E0E0800F00090E652E4F00090E654E4F000B2
:0E0E160090E656E4F00090E65174FFF0009074
:0E0E2400E65374FFF00090E65574FFF0009066
:0E0E3200E65774FFF00090E658E4F090E659A1
:0E0E400074FFF090E65AE4F090E65B74FFF069
:0E0E4E0090E65CE4F090E65D74FFF090E65EE6
:0E0E5C00E4F090E65F74FFF00090E660E4F0D2
:0D0E6A000090E66174FFF090E662E4F09005
:0E0E7700E66374FFF090E665E4F090E66874C0
:0A0E85000BF05391AFD2E8D2EA223D
:010E8F002240
:020E9000AA8234
:060E9200120E8FDAFB22B4
:030E980090FB507C
:080E9B00A3E582458370F922F2
:040EA300AA82AB83F1
:080EA700120E981ABAFF011B9C
:070EAF00BA00F5BB00F222BE
:030EBF007581201A
:0A0EC20012083DE582600302018082
:00000001FF
