:040000000200463282
:01000B0032C2
:0100130032BA
:01001B0032B2
:0100230032AA
:01002B0032A2
:01003300329A
:01003B003292
:030043000201F4C3
:0300BC000200BF80
:0500BF0012013580FE76
:0400C400758200221F
:0600C800AA82C2998A9988
:0400CE003099FD2246
:0500D200AA82BA0A0039
:0A00D700500874302AF5820200C8B8
:0800E10074372AF5820200C801
:0E00E900AA82758220C0021200C8D002EAC4AA
:0E00F700540FF582C0021200D2D002740F5ACC
:05010500F5820200D2AA
:06010A00AA82AB83ACF0F9
:0E0110008A828B838CF0120C1FFD60188D828A
:05011E000ABA00010B0C
:0E012300C002C003C0041200C8D004D003D034
:030131000280DC6D
:0101340022A8
:0701350012015B12017612BA
:06013C000183120196127E
:0E01420001DC43E60243A8A0900C3B75F08060
:0301500012010A8F
:08015300120AFD120B5D80F899
:0E015B0043B28375B90043B9801201DD43B988
:04016900C01201DDE2
:09016D00E5B930E5FB75A9022299
:0D01760075E2C043A41043801075A600225E
:0E018300759A0C7594FF75939875910075919F
:050191004375981022E7
:0B019600E59620E7FB759601759708C1
:0B01A100E59620E7FB759607759701B7
:0B01AC00E59620E7FB759609759700AB
:0E01B700E59620E7FB75960B75970575D7E06A
:0B01C500E59620E7FB75960F7597800C
:0C01D000E59620E7FB759601759701226B
:0101DC002200
:0401DD007A007B0029
:0E01E100C3EA94F4EB6480948150070ABA00DC
:0401EF00F10B80EEA2
:0101F30022E9
:0A0C3B000D0A52455345540D0A00FE
:0E0C45001201100100000040FB0901600004D4
:040C53000102030196
:0E0C570009022000010100804B090400000288
:0E0C6500FFFFFF0207058102400000070502A5
:040C7300024000003B
:040C77000403090465
:070C7B0069786F2E6465002B
:0E0C82000E03690078006F002E00640065000C
:0C0C90005553422D4A5441472D4946005F
:0E0C9C0018035500530042002D004A0054007A
:0A0CAA00410047002D0049004600FC
:090CB400303030303030303000B7
:0E0CBD001203300030003000300030003000F4
:040CCB0030003000C5
:020CCF00770CA0
:020CD100820C93
:020CD3009C0C77
:020CD500BD0C54
:06009F00751600D202D22A
:0100A5000357
:0E01F400C0E0C0F0C082C083C002C003C004DF
:0E020200C005C006C007C000C001C0D075D046
:0102100000ED
:08021100E59620E7FB759686D7
:07021900E59620E7FBAA9720
:08022000E59620E7FB759682CC
:07022800E59620E7FBAB9710
:08022F00E59620E7FB759684BB
:0E023700E59620E7FBE597EA30E20BC002C037
:0802450003120289D003D0026C
:0E024D00EA30E30BC002C0031204CCD003D091
:01025B0002A0
:0B025C00EB30E007C0021202C0D0022D
:07026700EA30E0031204C8B5
:0E026E00D0D0D001D000D007D006D005D004EB
:0D027C00D003D002D083D082D0F0D0E03289
:0B028900E59620E7FB759607759701CE
:0B029400E59620E7FB759609759700C2
:0B029F00E59620E7FB75960B75970DA8
:0C02AA00E59620E7FB759601759701753D
:0602B6000802751600D2DB
:0402BC0002D2032245
:0B02C000E59620E7FB75960E75970091
:0802CB00E59620E7FB75969112
:0B02D300E59620E7FBE597FA30E20F0C
:0C02DE00E59620E7FB75961175970075FA
:0302EA00160022D9
:0402ED00EA30E40E01
:0C02F100E59620E7FB7596117597807567
:0202FD001600E9
:0702FF00E51660030203B9DC
:07030600EA20E0030203B945
:04030D0075180975E1
:060311001900751A407589
:0C0317001708758220C002120533D002C6
:0E032300900CD775F080C00212010AD002853E
:0A0331000982C0021200E9D0028523
:0A033B000A82C0021200E9D002900D
:0D0345000CDE75F080C00212010AD002C269
:0A0352000074605509FB600ABB202F
:03035C0002800E0E
:05035F00BB401B8012F1
:09036400C0021205D1D002801084
:09036D00C002120A44D00280070C
:07037600C002120A45D0028B
:0C037D00E59620E7FB75960E75970030A2
:02038900000D65
:0D038B00E59620E7FB759611759740800EF2
:0C039800E59620E7FB759611759720751F
:0203A40016043D
:0603A600E511B50F09E5A9
:0803AC0012B510047401800178
:0103B400E464
:0403B50024FF92018E
:0703B900E516B40202800307
:0303C00002044BE9
:0703C300EA30E10302044BE4
:0803CA00E59620E7FB75969112
:0E03D200E59620E7FBE597FA30E404EA20E028
:0103E0006AB2
:0A03E1007B02C3E5119440E512947D
:0803EB0000403C751B40851326
:0303F3001C851452
:0303F6001D85154D
:0C03F9001E758220C0031205A4D00374FE
:07040500402513F513E43557
:04040C0014F514E5EA
:060410001124C0F511E506
:060416001234FFF5123064
:05041C000123E511457C
:0904210012701D7B0AF51680170C
:04042A0085111B8598
:03042E00131C8517
:03043100141D8512
:06043400151E7582201266
:07043A0005A47B0A75160002
:0A044100E59620E7FB7596118B97F6
:05044B00E516B4037783
:08045000E59620E7FB7596918B
:0D045800E59620E7FBE597FA30E0647A4076
:08046500E59620E7FB75969671
:0A046D00E59620E7FBAB978B17859F
:03047700131885D2
:03047A00141985CD
:0A047D00151A758220C002C0031298
:0A0487000533D003D002EB2513F576
:0504910013E43514F531
:0A049600148B047D00C3EC9511EDFA
:0A04A0009512500F7C00E511C39B7C
:0604AA00F511E5129CF5BE
:0304B00012800AAD
:0804B300E4F511F5127A487519
:0204BB00160029
:0A04BD00E59620E7FB7596118A977B
:0104C7002212
:0404C80043B22022F9
:0B04CC00E59620E7FB75960E75970182
:0804D700E59620E7FB75969104
:0A04DF00E59620E7FBAA9730020D16
:0D04E900E59620E7FB759611759710800FC2
:0404F600EA30E50BF8
:0B04FA00E59620E7FB75961175970052
:08050500E59620E7FB759694D2
:0A050D00E59620E7FBAA9730030CE7
:0C051700E59620E7FB75961475972122ED
:04052300EA30E60BC9
:0B052700E59620E7FB75961475970120
:0105320022A6
:09053300AA82E517606A1517E5BC
:08053C0017701B74804AF5964C
:0A054400E59620E7FBAB18AC19ADFB
:0C054E001A8B828C838DF0E597020C065E
:0A055A0074C04AF596AA18AB19AC5C
:030564001AAD17B6
:0E056700E59620E7FB8A828B838CF0E59712E5
:0A0575000C06A3AA82AB838A188B40
:06057F00198C1ADDE38A6D
:04058500188B198C2A
:010589001A57
:0B058A00E59620E7FB759600AA18AB71
:0A05950019AC1A8A828B838CF0E502
:04059F0097020C06AD
:0105A3002235
:0605A400AA82E51B60269F
:0A05AA00E59620E7FB8A96AA1BAB3A
:0405B4001CAC1DADB1
:0105B8001E24
:0E05B9008B828C838DF0120C1FF597A3AB8202
:0205C700AC8303
:0705C900E59620E7FBDAE9EB
:0105D0002208
:070CD70053455455503A004B
:030CDE000D0A00FC
:0B05D100E50AFA24F44046EA2A2A90CA
:0305DC0005DF73C5
:0705DF0002060302060602FA
:0605E600061E02060902D8
:0605EC00061E02060C02CF
:0605F200060F02061E02C6
:0605F800061202061502C6
:0505FE00061802061BB7
:0306030002061FCD
:03060600020744A4
:030609000207CF16
:03060C000208568B
:03060F0002088955
:03061200020932A8
:0306150002097B5C
:030618000209EBE9
:03061B00120A259B
:01061E0022B9
:07061F00E50B450C6003022E
:02062600073794
:09062800E50FB40204E5106003C3
:0306310002073786
:07063400AA09BA8002800D43
:05063B00BA8102801FDE
:05064000BA820280589F
:0306450002073772
:07064800E50D450E60030201
:02064F0007376B
:040651007513E375C5
:03065500140C750D
:050658001580D2000234
:02065D0007375D
:0A065F00900CE575F08012010A8589
:060669000D821200E99071
:09066F000CEA75F08012010AE5A5
:0606780008B40402800337
:03067E0002073739
:0A068100C3E50D9401E50E9400405E
:04068B000302073728
:04068F007513E37587
:03069300140C75CF
:050696001580D20002F6
:02069B0007371F
:0A069D00900CED75F08012010A8543
:0606A7000E821200E99032
:0906AD000CEA75F08012010AE567
:0606B60008B404028003F9
:0306BC00020737FB
:0706BF00E50E60030207379E
:0906C600C204AA0DBA0102803140
:0506CF00BA0202803DAB
:0506D400BA810280055F
:0506D900BA824480110B
:0A06DE00900CF275F08012010AA2E0
:0406E800029204D2A4
:0306EC000080315A
:0A06EF00900CF875F08012010AA2C9
:0406F900029204D293
:0306FD000080205A
:0A070000900CFE75F08012010AA2B1
:04070A00039204D280
:03070E0000800F59
:0A071100900D0475F08012010AA299
:04071B00039204D26F
:01071F0000D9
:0507200030040B75130D
:03072500E1751467
:060728000C75158080092C
:04072E007513E375E7
:03073200140C752F
:0207350015802D
:070737003000097516027580
:05073E001102E4F512B8
:010743002293
:07074400E508B40402800186
:01074B00228B
:07074C00E50F4510600122DA
:07075300AA09BA00028006AA
:05075A00BA0202801448
:01075F002277
:09076000E50BB40104E50C600195
:01076900226D
:07076A00E50D450E705ED2A3
:02077100002264
:07077300E50B450C7055E594
:0A077A000E7051AA0DBA010280278B
:0C078400BA8147900D0A75F08012010A3E
:0B079000E59620E7FB75960E759701BB
:0C079B00E59620E7FB759611759740C2AB
:0407A70002D2002258
:0907AB00900D1675F08012010A90
:0B07B400E59620E7FB75960E75970197
:0C07BF00E59620E7FB759614759780C244
:0307CB0003D20056
:0107CE002208
:0707CF00E508B404028001FB
:0107D6002200
:0707D700E50F45106001224F
:0707DE00AA09BA000280061F
:0507E500BA02028014BD
:0107EA0022EC
:0907EB00E50BB40104E50C60010A
:0107F40022E2
:0707F500E50D450E705AD21C
:0207FC000022D9
:0707FE00E50B450C7051E50D
:0A0805000E704DAA0DBA0102802BFF
:05080F00BA0202803472
:05081400BA810280051D
:05081900BA8239800ED7
:0A081E00900D2375F08012010AD23C
:0408280002D20022D6
:0A082C00900D2F75F08012010AD222
:0408360002D20022C8
:0A083A00900D3B75F08012010AD208
:0408440003D20022B9
:0A084800900D4875F08012010AD2ED
:0308520003D200CE
:010855002280
:07085600E509702EE50D45D8
:06085D000E7028E50F45B6
:08086300107022E50C701EE587
:08086B000B20E719E50B6010FA
:0C087300E59620E7FB759600850B977555
:04087F0008038003E7
:03088300750802F3
:02088600D2009E
:01088800224D
:07088900E509B480028003C1
:0308900002091A40
:07089300AA0CBA0102800A61
:05089A00BA02028022F9
:05089F00BA0378803A65
:0708A400E50B7072E50D4544
:0508AB000E706C7513D6
:0308B00045751477
:0508B3000C75158075B5
:0608B8001112E4F512D25A
:0308BE000080595E
:0708C100E50B7055E50D4544
:0508C8000E704F7513D6
:0308CD0057751448
:0508D0000C7515807598
:0608D5001120E4F512D22F
:0308DB0000803C5E
:0A08DE00C3E50B94045035E50B75DB
:0A08E800F002A424CFF582740C3551
:0C08F200F0F583E493FAA3E493FB8A136F
:0608FE008B14751580AAA1
:0409040013AB14AC71
:0C090800158A828B838CF0120C1FFA8A77
:0509140011751200D274
:0109190000DD
:08091A00300014751602C3E55C
:040922000F9511E537
:0609260010951250068539
:03092C000F118523
:02092F001012A4
:0109310022A3
:08093200E509B48037E50B452F
:06093A000C7031E50D45D3
:090940000E702BE50FB40104E573
:0309490010600239
:02094C00802009
:07094E00E508B4040B75136A
:03095500E1751435
:050958000C751580D2B2
:01095D000099
:07095E00E508B4030B75135B
:03096500E3751423
:050968000C751580D2A2
:01096D000089
:07096E003000097516027547
:050975001101E4F51280
:01097A00225A
:07097B00E509706BE50D4575
:060982000E7065E50F4553
:0809880010705FE50B6049757A
:090990000804900D5575F0801269
:02099900010A51
:0B099B00E59620E7FB75960E759701AE
:0B09A600E59620E7FB759612759700A0
:0B09B100E59620E7FB75961175974056
:0B09BC00E59620E7FB75961575978007
:0C09C700E59620E7FB759614759780C23A
:0509D30002C2038010C8
:0A09D800900D6575F08012010A759C
:0509E2000803D202D25F
:0109E700030C
:0209E800D2003B
:0109EA0022EA
:0A09EB00E508B40434E509B4812FD7
:0809F500E50B450C7029C3E578
:0A09FD000D9401E50E9400501EE574
:080A07000FB40104E5106001C9
:010A0F0022C4
:040A10007513E37502
:030A1400140C754A
:060A170015807516027542
:060A1D001101E4F512D204
:010A230000D2
:010A240022AF
:080A2500E509B40119E50B45D8
:090A2D000C7013C3E50D9401E502
:080A36000E94005008E50F4585
:050A3E00107002D2005F
:010A43002290
:020CE100010010
:020CE30000000F
:050CE500494E4920000A
:030CEA000D0A00F0
:050CED00494E45200006
:060CF2004531490D0A0026
:060CF8004532490D0A001F
:060CFE0045314F0D0A0014
:060D040045324F0D0A000C
:0C0D0A0043465F494E5F4550310D0A0022
:0D0D160043465F4F55545F4550310D0A00B4
:0C0D230053465F494E5F4550310D0A00F9
:0C0D2F0053465F494E5F4550320D0A00EC
:0D0D3B0053465F4F55545F4550310D0A007F
:0D0D480053465F4F55545F4550320D0A0071
:0E0D55005365745F436F6E666967204F4B0DE8
:020D63000A0084
:0E0D65005365745F436F6E666967204E414BA5
:030D73000D0A0066
:0700A600752104E4F5227846
:0800AD00257601782676027821
:0700B500277603782876048A
:010A4400228F
:0A0A4500900D7675F08012010A850D
:060A4F000A821200E9908A
:090A55000D7975F08012010A858B
:060A5E000C821200E98584
:060A64000B821200E99074
:090A6A000D7F75F08012010A8570
:060A73000E821200E9856D
:060A79000D821200E9905D
:090A7F000D8575F08012010A8555
:060A880010821200E98556
:080A8E000F821200E97480558B
:0C0A960009FABA8056900D8B75F08012A2
:080AA200010AE50AB49026AA3E
:0C0AAA000DE4FBCA25E0CA33FB53027FB9
:0A0AB6007B00EA2400FAEB3400FB99
:050AC0008A138B147580
:070AC5001500751102E4F5B4
:030ACC001280177E
:090ACF00782376367824768375CD
:030AD80013237570
:060ADB00140075154075C2
:050AE1001102E4F51212
:070AE600E5114512600E75D9
:040AED001602800964
:090AF100900D9375F08012010ACA
:030AFA00D2002205
:060AFD0020025C53E6FD3F
:0B0B0300E59620E7FB75960E75970144
:080B0E00E59620E7FB759691C6
:0E0B1600E59620E7FBE597FA20E038C3E4956A
:0A0B24002174808522F063F08095B3
:070B2E00F050287500257549
:090B350000027582211200007516
:030B3E000025751A
:0A0B41000004758221120000E4F5A3
:030B4B0021F5226F
:0B0B4E00E59620E7FB759611759701F6
:030B590043E6026E
:010B5C002276
:040B5D00300301223E
:030B610053E6FD5B
:0B0B6400E59620E7FB75960E759702E2
:080B6F00E59620E7FB75969462
:0E0B7700E59620E7FBE597FA20E003020C026A
:090B8500900D9C75F08012010A2C
:080B8E00E59620E7FB75969641
:0C0B9600E59620E7FBAA97BA0002805504
:090BA2001AEA70057596A1803471
:030BAB007596E15B
:0B0BAE00E59620E7FB74804597F59664
:0E0BB900E59620E7FBAB978B82C0021200E9A5
:090BC700D002EA54076002800D1F
:0D0BD000900DA275F080C00212010AD00243
:020BDD00DACF6D
:0D0BDF00E59620E7FB759600AB978B821220
:090BEC0000E9900DA275F08012E1
:020BF500010AF3
:0B0BF700E59620E7FB7596147597004B
:040C020043E60222A1
:030D7600565200D2
:060D79002C2056616C0005
:060D7F002C2049647800FD
:060D85002C204C656E00FD
:080D8B002028494E290D0A0041
:090D930020284F5554290D0A00D7
:060D9C004F55540D0A0042
:030DA2000D0A0037
:0E0DA5000000C016AD060004804B1C001001BB
:0E0DB300940EA218BA120E03560065006E00D0
:0E0DC10064006F0072001803550053004200DA
:0E0DCF002D004A005400410047002D0049004D
:0E0DDD004600120330003000300030003000BD
:0E0DEB00300030003000010203010000000063
:0E0DF9000000000000000000000000000000EC
:0E0E07000000000000000000000000000000DD
:0E0E15000000000000000000000000000000CF
:020E23002CEBB6
:06007500E478FFF6D8FD5F
:080053007980E94400601B7A8A
:05005B0001900DA578E5
:030060000075AA7E
:0A00630000E493F2A308B8000205C0
:08006D00AAD9F4DAF275AAFF2A
:0E0C060020F71030F6118883A88220F507F63B
:050C1400A883758300B8
:010C190022B8
:030C1A00F280F76E
:020C1D00F022C3
:08007B007800E84400600A79F6
:030083000075AA5B
:0600860000E4F309D8FCC0
:08008C007800E84400600C79E3
:0B00940000900000E4F0A3D8FCD9FAB3
:0300460075812899
:0A0049001200C4E58260030200BF4C
:0E0C1F0020F71430F6148883A88220F507E62B
:060C2D00A883758300227C
:030C3300E280F765
:030C3600E4932222
:020C3900E022B7
:00000001FF
