:03000000020BE010
:0300030002004BAD
:03000B0002004BA5
:0300130002004B9D
:03001B0002004B95
:0300230002004B8D
:03002B0002004B85
:0400330053D8EF327D
:03003B0002004B75
:0300430002004B6D
:01004B003282
:03004300020100B7
:0300530002008028
:09008000020A4500020A460002D2
:080089000A4700020A480002C8
:080091000A4900020A4A0002BC
:080099000A4B00020A4C0002B0
:0800A1000A4D00020A4E0002A4
:0800A9000A4F00020A50000298
:0700B1000A5100020A52008F
:0901000002095B000209890002FA
:080109000973000209DB00028A
:08011100099F000209F300023E
:080119000A2F00020A30000267
:080121000A3100020A3200025B
:080129000A3300020A3400024F
:080131000A3500020A36000243
:080139000A3700020A38000237
:080141000A3900020A30000235
:080149000A3A00020A3B000221
:080151000A3C00020A3D000215
:080159000A3E00020A3F000209
:080161000A4000020A3000020E
:080169000A3000020A30000216
:080171000A4100020A420002EB
:070179000A4300020A4400E2
:080180007880E84400600C796E
:0C01880001901800E4F0A3D8FCD9FAD0D4
:0E01940083D082F6D8FDC082C083758200221F
:030E8200020E85D8
:030E98000201A2B2
:0501A2001201A780FE20
:0501A700C203C201C209
:0401AC0002C2001279
:0401B00005E87508E1
:0301B400007509CA
:0301B700E1750AE5
:0301BA0012750BB0
:0301BD00E1750CDD
:0301C0001C750D9E
:0301C300E1750ED5
:0301C6003C750F76
:0301C900E17514C9
:0301CC005C75154A
:0C01CF00E1D2E843D82090E668E0FA4452
:0D01DB0009F090E65CE0FA443DF0D2AF90F0
:0C01E800E680E0FA20E105D206120ADCF5
:0C01F40090E680E0FA54F7F0538EF8C259
:0102000003FA
:07020100300005120246C2A5
:0102080000F5
:090209003003351208595030C2CF
:0102120003E8
:0C021300120B9A20012090E682E0FA30E5
:0A021F00E70890E682E0FA20E1EA29
:0E02290090E682E0FA30E60890E682E0FA20E5
:02023700E0DA0B
:08023900120BA912085EE43368
:050241001206B680BBAF
:0C02460090E6B9E0FA24F45003020555DC
:07025200EA2A2A9002597309
:070259000203520203FD0243
:0602600005550204BF0277
:06026600055502055502DA
:06026C00027D02055502AF
:06027200034A02034202F0
:05027800033202033A0D
:08027D00120863400302056250
:0A02850090E6BBE0FABA0102801710
:05028F00BA02028036F6
:05029400BA03028059CD
:05029900BA0602801A04
:05029E00BA0702803BDD
:0302A3000203272C
:0A02A60090E6B3E509F0AA087B001A
:0802B00090E6B4EAF0020562D9
:0A02B80090E6B3E50BF0AA0A7B0004
:0802C20090E6B4EAF0020562C7
:0902CA0090E6B3E511F0AA10E57D
:0B02D300117B0090E6B4EAF002056227
:0902DE0090E6B3E513F0AA12E565
:0B02E700137B0090E6B4EAF002056211
:0E02F20090E6BAE0FAF582120B63AA82AB83A3
:0E0300007C008A058B068C07EA4B4C600F9040
:0E030E00E6B3EEF07E0090E6B4EDF00205627C
:0B031C0090E6A0E0FA4401F002056248
:0B03270090E6A0E0FA4401F00205623D
:08033200120894E43302056295
:08033A00120889E43302056298
:08034200120868E433020562B1
:08034A00120873E4330205629E
:080352001208AA400302056233
:0A035A0090E6B8E0FABA8002800DC8
:05036400BA8102802DAA
:05036900BA8202803E93
:03036E000203F295
:0A037100E4A2013325E0FAE4A20241
:0E037B0033FB420290E740EAF090E741E4F0E5
:0D03890090E68AF090E68B7402F0020562A7
:0E03960090E740E4F090E741F090E68AF090A6
:0803A400E68B7402F002056211
:0E03AC0090E6BCE0FA53027E90E6BCE0FBC394
:0E03BA0074809BE433FB4A900E9B93FA3395BC
:0E03C800E0FB74A12AFA74E63BFB8A828B8369
:0E03D600E0FA53020190E740EAF090E741E4BC
:0E03E400F090E68AF090E68B7402F00205625B
:0B03F20090E6A0E0FA4401F002056272
:0803FD001208BD400302056275
:0C04050090E6B8E0FA6008BA0202801B22
:030411000205627F
:0B04140090E6BAE0FABA0105C201024E
:02041F00056274
:0B04210090E6A0E0FA4401F002056242
:09042C0090E6BAE060030204B49A
:0E04350090E6BCE0FA53027E90E6BCE0FBC30A
:0E04430074809BE433FB4A900E9B93FA339532
:0E045100E0FB74A12AFA74E63BFB90E6BCE0E7
:0E045F00FC53047E90E6BCE0FDC374809DE477
:0E046D0033FD4C900E9B93FC3395E0FD74A183
:0E047B002CFC74E63DFD8C828D83E0FC530466
:0E048900FE8A828B83ECF090E6BCE05480FA91
:0E049700C423541FFA90E6BCE0FB740F5B9088
:0D04A500E6832AF090E683E0FA4420F0029E
:0204B2000562E1
:0B04B40090E6A0E0FA4401F0020562AF
:0804BF001208C24003020562AD
:0C04C70090E6B8E0FA6008BA0202802556
:0304D300020562BD
:0B04D60090E6BAE0FABA0105D201027C
:0204E1000562B2
:0B04E30090E6BAE0FABA0203020562DC
:0A04EE0090E6A0E0FA4401F0806AF5
:0E04F80090E6BCE0FA53027E90E6BCE0FBC347
:0E05060074809BE433FB4A900E9B93FA33956E
:0E051400E0FB74A12AFA74E63BFB90E6BCE023
:0E052200FC53047E90E6BCE0FDC374809DE4B3
:0E05300033FD4C900E9B93FC3395E0FD74A1BF
:0E053E002CFC74E63DFD8C828D83E0FC4304B2
:09054C00018A828B83ECF0800D22
:0D0555001208C7500890E6A0E0FA4401F03B
:0905620090E6A0E0FA4480F022CA
:0A0E9B000001020203030404050530
:0A0BE000901800E4F0901801F09066
:0C0BEA00180274C0F09018037416F0900C
:0C0BF600180474ADF09018057406F0901F
:0B0C02001806E4F09018077404F0904E
:0C0C0D0018087480F0901809744BF090E7
:0B0C1900180A741CF090180BE4F09017
:0C0C2400180C7410F090180D7401F09082
:0C0C3000180E7494F090180F740EF090E1
:0C0C3C00181074A2F09018117418F090B9
:0C0C4800181274BAF09018137412F09097
:0C0C54001814740EF09018157403F09042
:0B0C600018167469F0901817E4F0906B
:0B0C6B0018187478F0901819E4F0904D
:0B0C7600181A746FF090181BE4F09047
:0B0C8100181C742EF090181DE4F09079
:0B0C8C00181E7464F090181FE4F09034
:0B0C970018207465F0901821E4F09024
:0C0CA20018227418F09018237403F090CE
:0B0CAE0018247455F0901825E4F09015
:0B0CB90018267453F0901827E4F09008
:0B0CC40018287442F0901829E4F0900A
:0B0CCF00182A742DF090182BE4F09010
:0B0CDA00182C744AF090182DE4F090E4
:0B0CE500182E7454F090182FE4F090CB
:0B0CF00018307441F0901831E4F090CF
:0B0CFB0018327447F0901833E4F090BA
:0B0D06001834742DF0901835E4F090C4
:0B0D110018367449F0901837E4F09099
:0B0D1C0018387446F0901839E4F0908D
:0C0D2700183A7412F090183B7403F0901E
:0B0D3300183C7430F090183DE4F09084
:0B0D3E00183E7430F090183FE4F09075
:0B0D490018407430F0901841E4F09066
:0B0D540018427430F0901843E4F09057
:0B0D5F0018447430F0901845E4F09048
:0B0D6A0018467430F0901847E4F09039
:0B0D750018487430F0901849E4F0902A
:0B0D8000184A7430F090184BE4F0901B
:0C0D8B00184C7401F090184D7402F090A8
:0C0D9700184E7403F090184F7401F09097
:090DA3001850E4F0901851F09092
:080DAC001852F0901853F0906A
:090DB4001854E4F0901855F09079
:080DBD001856F0901857F09051
:090DC5001858E4F0901859F09060
:080DCE00185AF090185BF09038
:090DD600185CE4F090185DF09047
:080DDF00185EF090185FF0901F
:090DE7001860E4F0901861F0902E
:080DF0001862F0901863F09006
:090DF8001864E4F0901865F09015
:080E01001866F0901867F090EC
:090E09001868E4F0901869F090FB
:080E1200186AF090186BF090D3
:090E1A00186CE4F090186DF090E2
:080E2300186EF090186FF090BA
:090E2B001870E4F0901871F090C9
:080E34001872F0901873F090A1
:090E3C001874E4F0901875F090B0
:080E45001876F0901877F09088
:090E4D001878E4F0901879F09097
:080E5600187AF090187BF0906F
:090E5E00187CE4F090187DF0907E
:0C0E6700187E7408F090187F74A7F0D279
:040E730021D222D294
:030E770023D2245F
:0D056B0053B1EF900032120B1B43B1102270
:0E05780090E6047480F0120B0F90E6047406F7
:0D058600F0120B0F90E604E4F0120B0F9042
:0E059300E6487486F0120B0F90E6487486F06E
:0705A100120B0FE4F517F542
:0405A80018F519F534
:0205AC001A2211
:0E05AE0090E618E4F0120B0F90E6047480F053
:0D05BC00120B0F90E6047402F0120B0F906A
:0E05C900E604E4F0120B0F90E6497482F01283
:0C05D7000B0F90E6497482F0120B0F75B8
:0505E3001600D2052204
:0C05E800C20490E6007412F090E601746A
:0E05F400E0F075B10F75B61F9001F4120B1BED
:0E06020075CB6375CAC0758E0075C804D2AF83
:0E061000D2B0D2B190E60B7403F0120B0F9033
:0E061E00E61074A0F0120B0F90E61174A0F01D
:0D062C00120B0F90E61274A2F0120B0F904B
:0E063900E61374A0F0120B0F90E61474E2F0BA
:0D064700120B0F90E61574E0F0120B0F90EF
:0D065400E619E4F0120B0F90E61BE4F01223
:0E0661000B0F90E6047480F0120B0F90E6046D
:0D066F007404F0120B0F90E6047408F012F2
:0E067C000B0F90E604E4F0120B0F90E64974A9
:0E068A0084F0120B0F90E6497484F0120B0FEF
:070698001205781205AE0205
:02069F00056BE9
:0B06A100AA82851A827583E0EAF0054A
:0506AC001A0517E4B57A
:0406B100170205180F
:0106B5002222
:0406B60020040122F9
:0B06BA0090E6A2E0FA30E103020750D6
:0A06C500E5174518606B7AC07BE76B
:0E06CF008B9D7AC07BE77B008A9E90E67C7450
:0C06DD0031F07460F0C3743E9517E49592
:0A06E9001850107A3EE51724C2F500
:0606F30017E51834FFF5C5
:0306F9001880075F
:0606FC00AA17E4F517F552
:0107020018DE
:0B0703008A037C007DE08D9A85199B25
:0E070E008A041AEC601190E67BE0FC90E67C19
:09071C00F07C007DE08D9A80E97B
:0C072500859B19120B0F90E68F74022BBD
:05073100F0D2CF801A98
:0E07360030CF1790E7C07431F090E7C17460C7
:0C074400F0120B0F90E68F7402F0C2CF91
:06075000E5AA30E00122E1
:0A075600C3E51794C1E518940040B4
:02076000012274
:0E07620090E691E0FA7B007CF08C9A7B007CA4
:07077000F07C008B9B7B0075
:08077700C3EB9A400302084F96
:0A077F00E5166065EAC39BFCC3E5C4
:06078900169C5002AC16A4
:0A078F00E516C39CF516EC2BFB30B9
:0407990005208C05A6
:0E079D008D061DEE60D490E67BE0FEF582C076
:0E07AB0002C003C005120A53D005D003D002CD
:0207B90080E2DC
:0E07BB008C051CED60B690E67BE0FDF582C07B
:0E07C90002C003C004120A8FD004D003D00275
:0E07D700C002C003C0041206A1D004D003D09B
:0307E5000280D3BC
:0C07E80090E67BE0FC30E6047D0080021F
:0207F4007D0185
:0C07F600ED24FF9205EC30E707743F5C37
:04080200F516804522
:08080600EC30E0047D018002EA
:02080E007D006B
:0C081000ED24FF9223EC30E1047D018018
:01081C0002D9
:02081D007D005C
:0C081F00ED24FF9224EC30E4047C018006
:01082B0002CA
:02082C007C004E
:0A082E00EC24FF9221200515E4A23E
:0C0838002233FC74024CF582C002C003A5
:070844001206A1D003D0024F
:04084B000B0207771E
:0A084F00120B0F90E6917480F02266
:05085900740124FF22E0
:05085E00740124FF22DB
:05086300740124FF22D6
:0B08680090E6BAE0F51B740124FF22AB
:0C08730090E740E51BF090E68AE4F0906E
:0A087F00E68B7401F0740124FF22DF
:0B08890090E6BAE0F51C740124FF2289
:0C08940090E740E51CF090E68AE4F0904C
:0A08A000E68B7401F0740124FF22BE
:0C08AA0090E6B8E0FABA4006D204E4245C
:0208B600FF221F
:0508B800740124FF2281
:0508BD00740124FF227C
:0508C200740124FF2277
:0C08C70090E6B9E0FA600ABA0502800D64
:0508D300BA905A8021DB
:0808D8001205781205AE806FD5
:0D08E00090E7407436F090E7417483F0908B
:0C08ED00E68AE4F090E68B7402F080567E
:0C08F90090E6BCE025E0547FFA2400F5F6
:0C09050082E43418F583E0FB90E740F03A
:0A09110074012A2400F582E4341872
:0E091B00F583E0FA90E741F090E68AE4F09070
:07092900E68B7402F0801F51
:0E09300090E6B8E0FABAC01790E7407436F0CF
:0E093E0090E7417483F090E68AE4F090E68B37
:03094C007402F042
:0C094F0090E6A0E0FA4480F0E424FF22CF
:0C095B00C0E0C082C083D2005391EF9036
:0C096700E65D7401F0D083D082D0E03255
:0E097300C0E0C082C0835391EF90E65D740433
:08098100F0D083D082D0E032F7
:0E098900C0E0C082C0835391EF90E65D74021F
:08099700F0D083D082D0E032E1
:0E099F00C0E0C082C083C00290E680E0FA3063
:0609AD00E70E850C108529
:0309B3000D11859E
:0309B6000E128599
:0409B9000F13800C8C
:0409BD00850E10850E
:0309C1000F11858E
:0309C4000C12858D
:0209C7000D130E
:0E09C9005391EF90E65D7410F0D002D083D011
:0409D70082D0E032B8
:0C09DB00C0E0C082C083D2035391EF90B3
:0C09E700E65D7408F0D083D082D0E032CE
:0E09F300C0E0C082C083C00290E680E0FA300F
:060A0100E70E850C1085D4
:030A07000D118549
:030A0A000E128544
:040A0D000F13800C37
:040A1100850E1085B9
:030A15000F118539
:030A18000C128538
:020A1B000D13B9
:0E0A1D005391EF90E65D7420F0D002D083D0AC
:040A2B0082D0E03263
:010A2F003294
:010A30003293
:010A31003292
:010A32003291
:010A33003290
:010A3400328F
:010A3500328E
:010A3600328D
:010A3700328C
:010A3800328B
:010A3900328A
:010A3A003289
:010A3B003288
:010A3C003287
:010A3D003286
:010A3E003285
:010A3F003284
:010A40003283
:010A41003282
:010A42003281
:010A43003280
:010A4400327F
:010A4500327E
:010A4600327D
:010A4700327C
:010A4800327B
:010A4900327A
:010A4A003279
:010A4B003278
:010A4C003277
:010A4D003276
:010A4E003275
:010A4F003274
:010A50003273
:010A51003272
:010A52003271
:050E7A00D225D226D2B2
:030E7F0027D2284F
:090A5300E582139225D22713C29B
:040A5C00279225D2E6
:050A60002713C22792DC
:050A650025D22713C299
:040A6A00279225D2D8
:050A6E002713C22792CE
:050A730025D22713C28B
:040A7800279225D2CA
:050A7C002713C22792C0
:050A810025D22713C27D
:040A8600279225D2BC
:050A8A002700C2272235
:080A8F00E582A226139225D294
:040A970027C227A2A9
:050A9B0026139225D294
:040AA00027C227A2A0
:050AA40026139225D28B
:040AA90027C227A297
:050AAD0026139225D282
:040AB20027C227A28E
:050AB60026139225D279
:040ABB0027C227A285
:050ABF0026139225D270
:040AC40027C227A27C
:050AC80026139225D267
:040ACD0027C227A273
:050AD10026139225D25E
:060AD60027C227F5822271
:0EE100001201100100000040C016AD06040020
:04E10E000102030106
:0AE112000A061001FFFFFF400100A4
:0EE11C0009022000010100A04B0904000002CE
:0EE12A00FFFFFF02070581024000000705020B
:04E1380002400000A1
:0EE13C0009022000010100A04B0904000002AE
:0EE14A00FFFFFF0207058102400000070502EB
:04E158000240000081
:04E15C0004030904AB
:0EE160000E03690078006F002E006400650059
:0EE16E0018035500530042002D004A005400D3
:0AE17C00410047002D004900460055
:0BE186000B0330000000000000000050
:02E1910000008C
:0C0ADC0030060A90E680E0FA440AF08040
:010AE8000805
:080AE90090E680E0FA4408F0F9
:0D0AF1009005DC120B1B90E65D74FFF09089
:0E0AFE00E65F74FFF05391EF90E680E0FA544B
:030B0C00F7F022DD
:060E9200E478FFF6D8FD34
:010B0F0022C3
:030B100090FDA5B0
:080B1300A3E582458370F9227D
:0E0B1B00AA82AB8390E600E0FC5418701174BF
:0E0B2900012AFCE43BFD8C02C313CA13CAFB75
:020B370080122A
:0E0B390090E600E0FC530418BC1007EBCA2540
:040B4700E0CA33FBD2
:050B4B00EA4B700122DD
:090B50008A048B051ABAFF011B8F
:090B5900EC4D6005120B1080EE5A
:010B62002270
:060B6300AA82AB14AC15E0
:0E0B69008B828C83A3E0FDBD03238A051AED69
:070B770070058B828C8322C4
:0E0B7E008B058C068B828C83E0FF7800EF2DB8
:0A0B8C00FDE83EFE8D038E0480D3C9
:040B960090000022A9
:0E0B9A0090E6817426F0438701000000000001
:010BA800222A
:0E0BA90090E682E0FA30E70890E682E0FA205B
:020BB700E1104B
:0E0BB90090E682E0FA30E61E90E682E0FA3026
:020BC700E01636
:0E0BC90090E680E0FA4401F0900014120B1B3D
:080BD70090E680E0FA54FEF004
:010BDF0022F3
:030E850075812054
:0A0E8800120180E58260030201A25E
:00000001FF
