:0600000002100D02006B6E
:03000B0002006B85
:0300130002006B7D
:03001B0002006B75
:0300230002006B6D
:03002B0002006B65
:0300330002006B5D
:03003B0002006B55
:0300430002006B4D
:03004B0002006B45
:0300530002006B3D
:03005B0002006B35
:0300630002006B2D
:01006B003262
:1000800002006B0002006B0002006B0002006B00BC
:1000900002006B0002006B0002006B0002006B00AC
:1000A00002006B0002006B0002006B0002006B009C
:0800B00002006B0002006B006E
:1001000002006B0002006B0002006B0002006B003B
:1001100002006B0002006B0002006B0002006B002B
:1001200002006B0002006B0002006B0002006B001B
:1001300002006B0002006B0002006B0002006B000B
:1001400002006B0002006B0002006B0002006B00FB
:1001500002006B0002006B0002006B0002006B00EB
:1001600002006B0002006B0002006B0002006B00DB
:1001700002006B0002006B0002006B0002006B00CB
:03101300021016B2
:0310290002018041
:100180001205CF80FEC200E4F508F509F50AD20198
:10019000750B00750C001207CC1207C975CB63757F
:1001A000CAC0758E0075C804D2AFD2B0D2B190E685
:1001B0000B7403F00090E6047480F00090E6047481
:1001C00002F00090E6047404F00090E6047406F077
:1001D0000090E6047408F00090E604E4F00090E675
:1001E0001074A0F00090E61174A0F00090E618E4FE
:1001F000F00090E61274A2F00090E619E4F000908E
:10020000E61374A0F00090E60BE4F00090E614749E
:10021000A2F00090E61AE4F00090E61A7411F000E3
:1002200090E61574E0F00090E61BE4F00090E61B09
:100230007409F00090E626E4F00090E6277440F0A0
:100240000090E6917480F00090E6957480F0009044
:10025000E6917480F00090E6957480F00043A080F1
:1002600090E6FBE0FA54FDF090E601E0FA54F7F076
:1002700022AA82850C827583E0EAF0050C0509E468
:10028000B50902050A22200001221207C890E6A241
:10029000E0FA30E10302031FE509450A60697AC00C
:1002A0007BE78B9D7AC07BE77B008A9E90E67C741F
:1002B00031F07460F0C3743E9509E4950A50107AE9
:1002C0003EE50924C2F509E50A34FFF50A8007AACC
:1002D00009E4F509F50A8A037C007DE08D9A850B17
:1002E0009B8A041AEC601190E67BE0FC90E67CF0BF
:1002F0007C007DE08D9A80E9859B0B0090E68F74F1
:10030000022BF0D2CF801830CF1590E7C07431F0B7
:1003100090E7C17460F00090E68F7402F0C2CFE500
:10032000AA30E00122C3E50994C1E50A9400400126
:100330002290E690E0FA8A037A0090E691E0FC7D54
:1003400000EA4CF50DEB4DF50E7C007DF08D9A7CAE
:10035000007DF07D008C9B7C007D00C3EC950DED55
:10036000950E4003020457E5087003020407E50DEB
:10037000C39CFEE50E9DFFA8087900C3E89EE99F97
:100380005004880689078E00E508C398F508EE2C0E
:10039000FCEF3DFD30012D8E008F0188028903188E
:1003A000B8FF0119EA4B60B390E67BE0FAF582C032
:1003B00004C005C000C001120873D001D000D005F0
:1003C000D00480D78E028F038A068B071ABAFF01EA
:1003D0001BEE4F700302035B90E67BE0FEF582C0EC
:1003E00002C003C004C0051208B0D005D004D00379
:1003F000D002C002C003C004C005120271D005D0F3
:1004000004D003D00280C190E67BE0FA30E6047BA2
:100410000080027B01EB24FF9201EA30E707743F82
:100420005AF508802A30010F8A82C004C0051207DD
:10043000EAD005D00480188A82C004C00512086082
:10044000D005D004C004C005120271D005D0040C40
:10045000BC00010D02035B0090E6917480F02290D5
:10046000E6B8E0FA20E70C90E6B9E07002D2007539
:1004700082012290E6B9E0FABA9002801ABA91029B
:10048000805ABA9203020514BA930302052EBA9455
:100490000302055E02059790E6BCE025E0547FFA72
:1004A0002400F582E43418F583E0FB90E740F07413
:1004B000012A2400F582E43418F583E0FA90E7413C
:1004C000F090E6BEE0FABA0200500790E6BEE0FA0D
:1004D00080027A0290E68BEAF00205C090E6BCE06A
:1004E000701390E6FBE0FA54FDF090E7407402F0E0
:1004F0001209A2801190E6FBE0FA4402F090E74076
:100500007401F01209A290E68AE4F090E68B74017F
:10051000F00205C090E6BCE0700543A08080035364
:10052000A07F90E68AE4F090E68BF00205C090E6AA
:10053000BCE0700F90E601E0FA54F7F090E740E479
:10054000F0800E90E601E0FA4408F090E740740174
:10055000F090E68AE4F090E68B7401F080627A0015
:100560007B00EA242CFCEB3410FD7E808C828D8392
:100570008EF0120FF1FC6013EA2440F582EB34E7B1
:10058000F583ECF00ABA00DA0B80D790E68AE4F043
:1005900090E68BEAF0802990E7407436F090E741CE
:1005A0007483F090E68AE4F090E6BEE0FABA0200C6
:1005B000500790E6BEE0FA80027A0290E68BEAF0FD
:1005C00075820122300203120B3D12028680F5C2B1
:1005D000AF12018512062C120F22120AA7D2AF12F7
:0505E00009A20205C4A0
:06102C00342E322E3000CC
:10E100001201100100000040C016AD06040001021B
:10E1100003010A061001FFFFFF400100090237005A
:10E1200002010080FA0904000002FFFFFF02070558
:10E1300081024000000705020240000009040100BE
:10E1400002FFFFFF02070506020002000705880222
:03E15000000200CA
:10E154001201100100000040C016AD0604000102C7
:10E1640003010A061001FFFFFF4001000902370006
:10E1740002010080FA0904000002FFFFFF02070504
:10E18400810240000007050202400000090401006A
:10E1940002FFFFFF02070506024000000705880290
:10E1A40040000004B0E1B6E1C0E1D8E1060300009C
:10E1B40009040A034500500046004C0018035500AA
:10E1C400530042002D004A005400410047002D0036
:10E1D40049004600120330003000300030003000A7
:06E1E400300030003000A5
:1005E500AA82E50F54FEFBB50F02802A8A048C050A
:1005F500E4FC6210ED6211EB2400F582E43418F599
:1006050083E0FB7C006210EC6211E51033C5113309
:10061500C51192E0F510AB0F050FEB2400F582E450
:100625003418F583EAF022750F007510AA7511AA22
:100635007582001205E57582001205E57A00C3EAA8
:10064500648094865018EA2408F582E434E1F58341
:10065500E0FBF582C0021205E5D0020A80E07A00CF
:10066500C3EA648094825018EA2423F582E434E1D5
:10067500F583E0FBF582C0021205E5D0020A80E0B1
:1006850075821C1205E57582001205E57A00C3EA3C
:10069500648094825018EA2402F582E434E1F583FB
:1006A500E0FBF582C0021205E5D0020A80E07486FF
:1006B500250FFAF582C0021205E5D00290E1B6E0F9
:1006C500FBF582C0021205E5D00290E1B6E0FB2AF7
:1006D500FAF582C0021205E5D00290E1C0E0FBF513
:1006E50082C0021205E5D00290E1C0E0FB2AFAF5CE
:1006F500821205E590E1D8E0FAF5821205E57A0067
:1007050090E1B6E0FBC3EA64808BF063F08095F07E
:100715005018EA24B6F582E434E1F583E0FBF5826E
:10072500C0021205E5D0020A80D67A0090E1C0E049
:10073500FBC3EA64808BF063F08095F05018EA24DF
:10074500C0F582E434E1F583E0FBF582C0021205D1
:10075500E5D0020A80D67A0090E1D8E0FBC3EA64CE
:10076500808BF063F08095F05018EA24D8F582E488
:1007750034E1F583E0FBF582C0021205E5D0020AFB
:1007850080D67A00C3EA648094845018EA240EF572
:1007950082E434E1F583E0FBF582C0021205E5D081
:1007A500020A80E07482250F40087582001205E573
:1007B50080F2AA107B0090187EEAF0AA1190187FAB
:1007C500EAF0222222222290E6007412F090E6013D
:1007D50074E0F075B11F75B61F9001F4120FDEE5D8
:1007E500B475B40022E582FA20E505E5B475B400D8
:1007F500EA30E0047B0180027B00EB24FF92A2EA51
:1008050030E1047B0180027B00EB24FF92A3EA30F8
:10081500E2047B0180027B00EB24FF92A5EA30E332
:10082500047B0180027B00EB24FF92A4EA30E40400
:100835007B0180027B00EB24FF92A0EA30E5047B7C
:100845000180027B00EB24FF92A7530220BA00012E
:1008550022AAB474BD5A44BDF5B4221207EAE4A233
:10086500A63325E0FAE4A2A133FB4AF58222E5820C
:100875001392A0D2A213C2A292A0D2A213C2A29294
:10088500A0D2A213C2A292A0D2A213C2A292A0D2B7
:10089500A213C2A292A0D2A213C2A292A0D2A21364
:1008A500C2A292A0D2A200C2A22222AA8230A4058C
:1008B5008A820208BF8A8202090DE582A2A11392EB
:1008C500A0D2A2C2A2A2A11392A0D2A2C2A2A2A108
:1008D5001392A0D2A2C2A2A2A11392A0D2A2C2A296
:1008E500A2A11392A0D2A2C2A2A2A11392A0D2A2A7
:1008F500C2A2A2A11392A0D2A2C2A2A2A11392A0A7
:10090500D2A2C2A2F5822222E582A2A61392A0D289
:10091500A2C2A2A2A61392A0D2A2C2A2A2A613927A
:10092500A0D2A2C2A2A2A61392A0D2A2C2A2A2A69D
:100935001392A0D2A2C2A2A2A61392A0D2A2C2A230
:10094500A2A61392A0D2A2C2A2A2A61392A0D2A23C
:10095500C2A2F58222227880E84400600C790190D9
:100965001800E4F0A3D8FCD9FAD083D082F6D8FDDC
:10097500C082C0837582002290E6A0E0FA4401F0AF
:1009850022AA8274805AFBC423541FFB740F5A9009
:10099500E6834BF090E683E0FA4420F02290E6806F
:1009A500E0FA440AF09000FA120FDE90E65D74FF5B
:1009B500F090E65F74FFF05391EF90E680E0FA5413
:0309C500F7F02226
:06102300E478FFF6D8FDA1
:06100D00751200751300CE
:1009C80090E680E0FA30E7267514007515E1751693
:1009D800127517E175181C7519E1751A70751BE108
:1009E80090E6267402F00090E627E4F000227514E1
:1009F800547515E17516667517E17518707519E166
:100A0800751A1C751BE190E626E4F00090E6277441
:100A180040F000225391EF75A100D20232C0E0C02D
:100A2800F0C082C083C002C003C004C005C006C0B5
:100A380007C000C001C0D075D0005391EF75A10068
:100A48001209C8D0D0D001D000D007D006D005D028
:100A580004D003D002D083D082D0F0D0E032C0E0FE
:100A6800C0F0C082C083C002C003C004C005C00675
:100A7800C007C000C001C0D075D0005391EF75A168
:100A8800001209C8D0D0D001D000D007D006D005B8
:100A9800D004D003D002D083D082D0F0D0E032127C
:100AA80009C8751C1C751D0A758200120E73751C09
:100AB80025751D0A758210120E73751C66751D0A40
:100AC800758214120E7390E65C7431F022E582543C
:100AD8007FFA24F7500475820022BA010475820156
:100AE80022530201E4BA000104F58222AA82BA0163
:100AF8000C90E6A1E0FB7C008B828C8322BA810CEF
:100B080090E6A2E0FB7C008B828C832253027FEA72
:100B1800700C90E6A0E0FB7C008B828C832290E630
:100B2800A3E0FB7C00EAC313FA7D00EA2BFBED3C53
:100B38008B82F58322C20290E6B8E0FA530260BACB
:100B480000028028BA2002800DBA4002800EBA60E6
:100B5800028003020E0712097D020E0712045FE5E8
:100B6800826003020E0712097D020E0790E6B8E0C4
:100B7800FA530280BA80028003020D0090E6B9E0C1
:100B8800FABA0003020C77BA06028035BA08028066
:100B980008BA0A028017020CFA90E740E512F090B2
:100BA800E68AE4F090E68B7401F0020E0790E740C5
:100BB800E513F090E68AE4F090E68B7401F0020EFB
:100BC8000790E6BBE0FABA01028017BA0202803841
:100BD800BA03028059BA0602801BBA0702803C0297
:100BE8000C71AA14AB1590E6B3EBF07B0090E6B459
:100BF800EAF0020E07AA16AB1790E6B3EBF07B00FB
:100C080090E6B4EAF0020E07AA18AB1990E6B3EB27
:100C1800F07B0090E6B4EAF0020E07AA1AAB1B902C
:100C2800E6B3EBF07B0090E6B4EAF0020E0790E63C
:100C3800BAE0FA90E1A7E0FBC3EA9B400612097DFF
:100C4800020E0790E6BAE0FA75F002A424A8F5822D
:100C580074E135F0F583E0FAA3E0FB90E6B3F07BAE
:100C68000090E6B4EAF0020E0712097D020E079022
:100C7800E6B8E0FA53021FBA0002800ABA010280FD
:100C88001BBA0268802C90E740E4F090E741F090AE
:100C9800E68AF090E68B7402F0020E0790E740E4D3
:100CA800F090E741F090E68AF090E68B7402F0024B
:100CB8000E0790E6BCE0FAF582120AD5E5826026B6
:100CC80090E6BCE0FAF582120AF4E0FA53020190C9
:100CD800E740EAF090E741E4F090E68AF090E68B8E
:100CE8007402F0020E0712097D020E0712097D0236
:100CF8000E0712097D020E0790E6B9E0FA24F450B7
:100D080003020E04EA2A2A900D1373020E04020D40
:100D18004C020DCA020DAB020E04020E04020E04B0
:100D2800020E04020E04020D37020E04020D435394
:100D3800B1BF90E6BAE0F512020E0790E6BAE0F508
:100D480013020E0790E6B8E0FA53021FBA000280B9
:100D580005BA024A800A90E6BAE012097D020E0737
:100D680090E6BAE0703390E6BCE0FAF582120AD554
:100D7800E582602590E6BCE0FAF582120AF4AA82C0
:100D8800AB83E0FC5304FE8A828B83ECF090E6BCD4
:100D9800E0FAF582120986806612097D80611209DF
:100DA8007D805C90E6B8E0FA53021FBA005190E6E5
:100DB800BAE0FABA01028005BA0202804212097D3D
:100DC800803D90E6BAE0FA702E90E6BCE0FAF58233
:100DD800120AD5E582601B90E6BCE0FAF582120A99
:100DE800F4AA82AB83E0FC4304018A828B83ECF093
:100DF800800D12097D800812097D800312097D90FB
:100E0800E6A0E0FA4480F022AA82BA03004005EA8C
:100E1800249C500122740F5AFBBB03028007740FF5
:100E28005AFBBB0B45A2AF9203C2AFEA2400F5827E
:100E3800E43400F5837402F07B0074012AFCE43B7F
:100E4800FDEC2400F582ED3400F583E51DFCF0741B
:100E5800022AFAE43BFBEA2400F582EB3400F5832E
:100E6800AA1C7B00EAF0A20392AF22E582FA24834F
:100E780050012274035AFB600122A2AF9204C2AF50
:100E8800EA2400F582E43401F5837402F07B0074EF
:100E9800012AFCE43BFDEC2400F582ED3401F583E6
:100EA800E51DFCF074022AFAE43BFBEA2400F58213
:100EB800EB3401F583AA1C7B00EAF0A20492AF226E
:100EC800AA82BA80004005EA244B50012274035AD2
:100ED800FB600122A2AF9205C2AFEA2480F582E44A
:100EE8003400F5837402F07B0074012AFCE43BFDB6
:100EF800EC2480F582ED3400F583E51DFCF07402E6
:100F08002AFAE43BFBEA2480F582EB3400F583AA55
:100F18001C7B00EAF0A20592AF22C2E8C2EA751C67
:100F280000751D01758243120E10751C80751D0019
:100F3800758253120E100090E650E4F00090E652CD
:100F4800E4F00090E654E4F00090E656E4F00090F7
:100F5800E65174FFF00090E65374FFF00090E655F8
:100F680074FFF00090E65774FFF00090E658E4F044
:100F780090E65974FFF090E65AE4F090E65B74FF4F
:100F8800F090E65CE4F090E65D74FFF090E65EE4D5
:100F9800F090E65F74FFF00090E660E4F00090E601
:100FA8006174FFF090E662E4F090E66374FFF090FD
:100FB800E665E4F090E668740BF05391AFD2E8D29E
:100FC800EA2222AA82120FCADAFB2290FB50A3E57A
:100FD80082458370F922AA82AB83120FD31ABAFF13
:090FE800011BBA00F5BB00F22266
:0D10160075812012095BE5826003020180F4
:100FF10020F71430F6148883A88220F507E6A88329
:0C10010075830022E280F7E49322E022D5
:00000001FF
