:0600000002106E02006B0D
:03000B0002006B85
:0300130002006B7D
:03001B0002006B75
:0300230002006B6D
:03002B0002006B65
:0300330002006B5D
:03003B0002006B55
:0300430002006B4D
:03004B0002006B45
:0300530002006B3D
:03005B0002006B35
:0300630002006B2D
:01006B003262
:1000800002006B0002006B0002006B0002006B00BC
:1000900002006B0002006B0002006B0002006B00AC
:1000A00002006B0002006B0002006B0002006B009C
:0800B00002006B0002006B006E
:1001000002006B0002006B0002006B0002006B003B
:1001100002006B0002006B0002006B0002006B002B
:1001200002006B0002006B0002006B0002006B001B
:1001300002006B0002006B0002006B0002006B000B
:1001400002006B0002006B0002006B0002006B00FB
:1001500002006B0002006B0002006B0002006B00EB
:1001600002006B0002006B0002006B0002006B00DB
:1001700002006B0002006B0002006B0002006B00CB
:03107400021077F0
:03108A00020180E0
:100180001205CF80FEC200E4F508F509F50AD20198
:10019000750B00750C001207CC1207C975CB63757F
:1001A000CAC0758E0075C804D2AFD2B0D2B190E685
:1001B0000B7403F00090E6047480F00090E6047481
:1001C00002F00090E6047404F00090E6047406F077
:1001D0000090E6047408F00090E604E4F00090E675
:1001E0001074A0F00090E61174A0F00090E618E4FE
:1001F000F00090E61274A2F00090E619E4F000908E
:10020000E61374A0F00090E60BE4F00090E614749E
:10021000A2F00090E61AE4F00090E61A7411F000E3
:1002200090E61574E0F00090E61BE4F00090E61B09
:100230007409F00090E626E4F00090E6277440F0A0
:100240000090E6917480F00090E6957480F0009044
:10025000E6917480F00090E6957480F00043A080F1
:1002600090E6FBE0FA54FDF090E601E0FA54F7F076
:1002700022AA82850C827583E0EAF0050C0509E468
:10028000B50902050A22200001221207C890E6A241
:10029000E0FA30E10302031FE509450A60697AC00C
:1002A0007BE78B9D7AC07BE77B008A9E90E67C741F
:1002B00031F07460F0C3743E9509E4950A50107AE9
:1002C0003EE50924C2F509E50A34FFF50A8007AACC
:1002D00009E4F509F50A8A037C007DE08D9A850B17
:1002E0009B8A041AEC601190E67BE0FC90E67CF0BF
:1002F0007C007DE08D9A80E9859B0B0090E68F74F1
:10030000022BF0D2CF801830CF1590E7C07431F0B7
:1003100090E7C17460F00090E68F7402F0C2CFE500
:10032000AA30E00122C3E50994C1E50A9400400126
:100330002290E690E0FA8A037A0090E691E0FC7D54
:1003400000EA4CF50DEB4DF50E7C007DF08D9A7CAE
:10035000007DF07D008C9B7C007D00C3EC950DED55
:10036000950E4003020457E5087003020407E50DEB
:10037000C39CFEE50E9DFFA8087900C3E89EE99F97
:100380005004880689078E00E508C398F508EE2C0E
:10039000FCEF3DFD30012D8E008F0188028903188E
:1003A000B8FF0119EA4B60B390E67BE0FAF582C032
:1003B00004C005C000C001120902D001D000D00560
:1003C000D00480D78E028F038A068B071ABAFF01EA
:1003D0001BEE4F700302035B90E67BE0FEF582C0EC
:1003E00002C003C004C00512094AD005D004D003DE
:1003F000D002C002C003C004C005120271D005D0F3
:1004000004D003D00280C190E67BE0FA30E6047BA2
:100410000080027B01EB24FF9201EA30E707743F82
:100420005AF508802A30010F8A82C004C0051208DC
:10043000A4D005D00480188A82C004C0051208F236
:10044000D005D004C004C005120271D005D0040C40
:10045000BC00010D02035B0090E6917480F02290D5
:10046000E6B8E0FA20E70C90E6B9E07002D2007539
:1004700082012290E6B9E0FABA9002801ABA91029B
:10048000805ABA9203020514BA930302052EBA9455
:100490000302055E02059790E6BCE025E0547FFA72
:1004A0002400F582E43418F583E0FB90E740F07413
:1004B000012A2400F582E43418F583E0FA90E7413C
:1004C000F090E6BEE0FABA0200500790E6BEE0FA0D
:1004D00080027A0290E68BEAF00205C090E6BCE06A
:1004E000701390E6FBE0FA54FDF090E7407402F0E0
:1004F000120A03801190E6FBE0FA4402F090E74014
:100500007401F0120A0390E68AE4F090E68B74011D
:10051000F00205C090E6BCE0700543A08080035364
:10052000A07F90E68AE4F090E68BF00205C090E6AA
:10053000BCE0700F90E601E0FA54F7F090E740E479
:10054000F0800E90E601E0FA4408F090E740740174
:10055000F090E68AE4F090E68B7401F080627A0015
:100560007B00EA248DFCEB3410FD7E808C828D8331
:100570008EF0121052FC6013EA2440F582EB34E74F
:10058000F583ECF00ABA00DA0B80D790E68AE4F043
:1005900090E68BEAF0802990E7407436F090E741CE
:1005A0007483F090E68AE4F090E6BEE0FABA0200C6
:1005B000500790E6BEE0FA80027A0290E68BEAF0FD
:1005C00075820122300203120B9E12028680F5C250
:1005D000AF12018512062C120F83120B08D2AF1234
:0505E0000A030205C43E
:06108D00342E322E30006B
:10E100001201100100000040C016AD06040001021B
:10E1100003010A061001FFFFFF400100090237005A
:10E1200002010080FA0904000002FFFFFF02070558
:10E1300081024000000705020240000009040100BE
:10E1400002FFFFFF02070506020002000705880222
:03E15000000200CA
:10E154001201100100000040C016AD0604000102C7
:10E1640003010A061001FFFFFF4001000902370006
:10E1740002010080FA0904000002FFFFFF02070504
:10E18400810240000007050202400000090401006A
:10E1940002FFFFFF02070506024000000705880290
:10E1A40040000004B0E1B6E1C0E1D8E1060300009C
:10E1B40009040A034500500046004C0018035500AA
:10E1C400530042002D004A005400410047002D0036
:10E1D40049004600120330003000300030003000A7
:06E1E400300030003000A5
:1005E500AA82E50F54FEFBB50F02802A8A048C050A
:1005F500E4FC6210ED6211EB2400F582E43418F599
:1006050083E0FB7C006210EC6211E51033C5113309
:10061500C51192E0F510AB0F050FEB2400F582E450
:100625003418F583EAF022750F007510AA7511AA22
:100635007582001205E57582001205E57A00C3EAA8
:10064500648094865018EA2408F582E434E1F58341
:10065500E0FBF582C0021205E5D0020A80E07A00CF
:10066500C3EA648094825018EA2423F582E434E1D5
:10067500F583E0FBF582C0021205E5D0020A80E0B1
:1006850075821C1205E57582001205E57A00C3EA3C
:10069500648094825018EA2402F582E434E1F583FB
:1006A500E0FBF582C0021205E5D0020A80E07486FF
:1006B500250FFAF582C0021205E5D00290E1B6E0F9
:1006C500FBF582C0021205E5D00290E1B6E0FB2AF7
:1006D500FAF582C0021205E5D00290E1C0E0FBF513
:1006E50082C0021205E5D00290E1C0E0FB2AFAF5CE
:1006F500821205E590E1D8E0FAF5821205E57A0067
:1007050090E1B6E0FBC3EA64808BF063F08095F07E
:100715005018EA24B6F582E434E1F583E0FBF5826E
:10072500C0021205E5D0020A80D67A0090E1C0E049
:10073500FBC3EA64808BF063F08095F05018EA24DF
:10074500C0F582E434E1F583E0FBF582C0021205D1
:10075500E5D0020A80D67A0090E1D8E0FBC3EA64CE
:10076500808BF063F08095F05018EA24D8F582E488
:1007750034E1F583E0FBF582C0021205E5D0020AFB
:1007850080D67A00C3EA648094845018EA240EF572
:1007950082E434E1F583E0FBF582C0021205E5D081
:1007A500020A80E07482250F40087582001205E573
:1007B50080F2AA107B0090187EEAF0AA1190187FAB
:1007C500EAF0222222222290E6007412F090E6013D
:1007D50074E2F090E670E4F075B2FB75802090E667
:1007E50071E4F075B4FF75A01090E672E4F075B68B
:1007F500FC75B1C090E6F574FFF090E6F374A0F0D7
:1008050090E6C3E4F090E6C1F090E6C2F090E6C051
:100815007401F075AF077A937B108B9A7A937B10EE
:100825007B008A9B759DE4759E007A00BA40005056
:100835000C90E67BE0FB90E67CF00A80EF0090E60A
:10084500C4E4F00090E6C5E4F090E6C6F090E6C793
:10085500F090E6C8F090E6C9E4F090E6CAF090E6BC
:10086500CBF090E6CCF090E6CDE4F075120022AA2C
:100875008275A041E5BB30E7FB90E6F1E0E5BB30D2
:10088500E7FB90E6F2E0FBE58030E505438040803C
:10089500035380BFEB30E00280027A008A8222E5B2
:1008A50082FA30E0047B4080027B008B12EA30E163
:1008B500047B2080027B00EB4212EA30E4047B10CB
:1008C50080027B00EB421275A081E5BB30E7FB900F
:1008D500E6F1E512F0EA30E60AAA8074FC5A440112
:1008E500F58022AA8074FC5A4402F580221208A4DD
:1008F500758201120874E5824402F58222AA82AB50
:10090500125303AF75A0817C0174104BFD7E00BEB0
:100915000800502E8B07EC5A60028D07E5BB30E7C7
:10092500FB90E6F1EFF0E5BB30E7FB90E6F17440B4
:100935004FF0EC2CFCE5BB30E7FB90E6F1EFF00E59
:1009450080CD8B1222AA82AB125303AF7C017D00AE
:1009550074104BFE7F00BF080050578B008C82C07F
:1009650002C003C004C005C006C007C00012087459
:10097500A982D000D007D006D005D004D003D0027C
:10098500E9420575A081EC5A60028E00E5BB30E7AF
:10099500FB90E6F1E8F0E5BB30E7FB90E6F174404B
:1009A50048F0EC2CFCE5BB30E7FB90E6F1E8F00FF6
:0709B50080A48B128D822249
:10109300040404032A0403070602020203020202F1
:1010A3000100030202030202000000000000003FEF
:1010B30004040404033304070000000000010200D9
:1010C3000100030203030202000000000000003FCE
:1009BC007880E84400600C7901901800E4F0A3D82A
:1009CC00FCD9FAD083D082F6D8FDC082C083758260
:1009DC00002290E6A0E0FA4401F022AA8274805A28
:1009EC00FBC423541FFB740F5A90E6834BF090E624
:1009FC0083E0FA4420F02290E680E0FA440AF0907A
:100A0C0000FA12103F90E65D74FFF090E65F74FF01
:0D0A1C00F05391EF90E680E0FA54F7F022DD
:06108400E478FFF6D8FD40
:06106E007513007514006B
:100A290090E680E0FA30E7267515007516E175172E
:100A3900127518E175191C751AE1751B70751CE1A1
:100A490090E6267402F00090E627E4F0002275157E
:100A5900547516E17517667518E1751970751AE1FF
:100A6900751B1C751CE190E626E4F00090E62774DE
:100A790040F000225391EF75A100D20232C0E0C0CC
:100A8900F0C082C083C002C003C004C005C006C054
:100A990007C000C001C0D075D0005391EF75A10007
:100AA900120A29D0D0D001D000D007D006D005D065
:100AB90004D003D002D083D082D0F0D0E032C0E09D
:100AC900C0F0C082C083C002C003C004C005C00614
:100AD900C007C000C001C0D075D0005391EF75A107
:100AE90000120A29D0D0D001D000D007D006D005F5
:100AF900D004D003D002D083D082D0F0D0E032121B
:100B09000A29751D7D751E0A758200120ED4751D80
:100B190086751E0A758210120ED4751DC7751E0AB8
:100B2900758214120ED490E65C7431F022E5825479
:100B39007FFA24F7500475820022BA0104758201F4
:100B490022530201E4BA000104F58222AA82BA0101
:100B59000C90E6A1E0FB7C008B828C8322BA810C8D
:100B690090E6A2E0FB7C008B828C832253027FEA11
:100B7900700C90E6A0E0FB7C008B828C832290E6CF
:100B8900A3E0FB7C00EAC313FA7D00EA2BFBED3CF2
:100B99008B82F58322C20290E6B8E0FA530260BA6A
:100BA90000028028BA2002800DBA4002800EBA6085
:100BB900028003020E681209DE020E6812045FE564
:100BC900826003020E681209DE020E6890E6B8E040
:100BD900FA530280BA80028003020D6190E6B9E0FF
:100BE900FABA0003020CD8BA06028035BA080280A4
:100BF90008BA0A028017020D5B90E740E513F090EE
:100C0900E68AE4F090E68B7401F0020E6890E74002
:100C1900E514F090E68AE4F090E68B7401F0020E98
:100C29006890E6BBE0FABA01028017BA020280387E
:100C3900BA03028059BA0602801BBA0702803C0235
:100C49000CD2AA15AB1690E6B3EBF07B0090E6B494
:100C5900EAF0020E68AA17AB1890E6B3EBF07B0036
:100C690090E6B4EAF0020E68AA19AB1A90E6B3EB63
:100C7900F07B0090E6B4EAF0020E68AA1BAB1C9068
:100C8900E6B3EBF07B0090E6B4EAF0020E6890E67A
:100C9900BAE0FA90E1A7E0FBC3EA9B40061209DE3D
:100CA900020E6890E6BAE0FA75F002A424A8F5826B
:100CB90074E135F0F583E0FAA3E0FB90E6B3F07B4D
:100CC9000090E6B4EAF0020E681209DE020E68909E
:100CD900E6B8E0FA53021FBA0002800ABA0102809C
:100CE9001BBA0268802C90E740E4F090E741F0904D
:100CF900E68AF090E68B7402F0020E6890E740E411
:100D0900F090E741F090E68AF090E68B7402F002E9
:100D19000E6890E6BCE0FAF582120B36E582602691
:100D290090E6BCE0FAF582120B55E0FA5302019005
:100D3900E740EAF090E741E4F090E68AF090E68B2C
:100D49007402F0020E681209DE020E681209DE0250
:100D59000E681209DE020E6890E6B9E0FA24F45032
:100D690003020E65EA2A2A900D7473020E65020DBC
:100D7900AD020E2B020E0C020E65020E65020E6507
:100D8900020E65020E65020D98020E65020DA4534E
:100D9900B1BF90E6BAE0F513020E6890E6BAE0F545
:100DA90014020E6890E6B8E0FA53021FBA000280F6
:100DB90005BA024A800A90E6BAE01209DE020E6814
:100DC90090E6BAE0703390E6BCE0FAF582120B3691
:100DD900E582602590E6BCE0FAF582120B55AA82FD
:100DE900AB83E0FC5304FE8A828B83ECF090E6BC73
:100DF900E0FAF5821209E780661209DE80611209BC
:100E0900DE805C90E6B8E0FA53021FBA005190E622
:100E1900BAE0FABA01028005BA020280421209DE7A
:100E2900803D90E6BAE0FA702E90E6BCE0FAF582D1
:100E3900120B36E582601B90E6BCE0FAF582120BD4
:100E490055AA82AB83E0FC4304018A828B83ECF0D0
:100E5900800D1209DE80081209DE80031209DE9076
:100E6900E6A0E0FA4480F022AA82BA03004005EA2B
:100E7900249C500122740F5AFBBB03028007740F94
:100E89005AFBBB0B45A2AF9203C2AFEA2400F5821D
:100E9900E43400F5837402F07B0074012AFCE43B1E
:100EA900FDEC2400F582ED3400F583E51EFCF074B9
:100EB900022AFAE43BFBEA2400F582EB3400F583CD
:100EC900AA1D7B00EAF0A20392AF22E582FA2483ED
:100ED90050012274035AFB600122A2AF9204C2AFEF
:100EE900EA2400F582E43401F5837402F07B00748E
:100EF900012AFCE43BFDEC2400F582ED3401F58385
:100F0900E51EFCF074022AFAE43BFBEA2400F582B0
:100F1900EB3401F583AA1D7B00EAF0A20492AF220B
:100F2900AA82BA80004005EA244B50012274035A70
:100F3900FB600122A2AF9205C2AFEA2480F582E4E8
:100F49003400F5837402F07B0074012AFCE43BFD54
:100F5900EC2480F582ED3400F583E51EFCF0740283
:100F69002AFAE43BFBEA2480F582EB3400F583AAF4
:100F79001D7B00EAF0A20592AF22C2E8C2EA751D04
:100F890000751E01758243120E71751D80751E0054
:100F9900758253120E710090E650E4F00090E6520B
:100FA900E4F00090E654E4F00090E656E4F0009096
:100FB900E65174FFF00090E65374FFF00090E65597
:100FC90074FFF00090E65774FFF00090E658E4F0E3
:100FD90090E65974FFF090E65AE4F090E65B74FFEE
:100FE900F090E65CE4F090E65D74FFF090E65EE474
:100FF900F090E65F74FFF00090E660E4F00090E6A0
:101009006174FFF090E662E4F090E66374FFF0909B
:10101900E665E4F090E668740BF05391AFD2E8D23C
:10102900EA2222AA8212102BDAFB2290FB50A3E5B6
:1010390082458370F922AA82AB831210341ABAFF4F
:09104900011BBA00F5BB00F22204
:0D1077007581201209BCE582600302018032
:1010520020F71430F6148883A88220F507E6A883C7
:0C10620075830022E280F7E49322E02274
:00000001FF
